{
  "contractName": "Greeter",
  "abi": [
    {
      "constant": false,
      "inputs": [],
      "name": "kill",
      "outputs": [],
      "payable": false,
      "stateMutability": "nonpayable",
      "type": "function"
    },
    {
      "inputs": [
        {
          "name": "_greeting",
          "type": "string"
        }
      ],
      "payable": false,
      "stateMutability": "nonpayable",
      "type": "constructor"
    },
    {
      "constant": false,
      "inputs": [
        {
          "name": "_greeting",
          "type": "string"
        }
      ],
      "name": "changeGreeting",
      "outputs": [],
      "payable": false,
      "stateMutability": "nonpayable",
      "type": "function"
    },
    {
      "constant": true,
      "inputs": [],
      "name": "greet",
      "outputs": [
        {
          "name": "",
          "type": "string"
        }
      ],
      "payable": false,
      "stateMutability": "view",
      "type": "function"
    }
  ],
  "bytecode": "0x608060405234801561001057600080fd5b506040516104ce3803806104ce83398101806040528101908080518201929190505050336000806101000a81548173ffffffffffffffffffffffffffffffffffffffff021916908373ffffffffffffffffffffffffffffffffffffffff1602179055508060019080519060200190610089929190610090565b5050610135565b828054600181600116156101000203166002900490600052602060002090601f016020900481019282601f106100d157805160ff19168380011785556100ff565b828001600101855582156100ff579182015b828111156100fe5782518255916020019190600101906100e3565b5b50905061010c9190610110565b5090565b61013291905b8082111561012e576000816000905550600101610116565b5090565b90565b61038a806101446000396000f300608060405260043610610057576000357c0100000000000000000000000000000000000000000000000000000000900463ffffffff16806341c0e1b51461005c578063cfae321714610073578063d28c25d414610103575b600080fd5b34801561006857600080fd5b5061007161016c565b005b34801561007f57600080fd5b506100886101fd565b6040518080602001828103825283818151815260200191508051906020019080838360005b838110156100c85780820151818401526020810190506100ad565b50505050905090810190601f1680156100f55780820380516001836020036101000a031916815260200191505b509250505060405180910390f35b34801561010f57600080fd5b5061016a600480360381019080803590602001908201803590602001908080601f016020809104026020016040519081016040528093929190818152602001838380828437820191505050505050919291929050505061029f565b005b6000809054906101000a900473ffffffffffffffffffffffffffffffffffffffff1673ffffffffffffffffffffffffffffffffffffffff163373ffffffffffffffffffffffffffffffffffffffff1614156101fb576000809054906101000a900473ffffffffffffffffffffffffffffffffffffffff1673ffffffffffffffffffffffffffffffffffffffff16ff5b565b606060018054600181600116156101000203166002900480601f0160208091040260200160405190810160405280929190818152602001828054600181600116156101000203166002900480156102955780601f1061026a57610100808354040283529160200191610295565b820191906000526020600020905b81548152906001019060200180831161027857829003601f168201915b5050505050905090565b80600190805190602001906102b59291906102b9565b5050565b828054600181600116156101000203166002900490600052602060002090601f016020900481019282601f106102fa57805160ff1916838001178555610328565b82800160010185558215610328579182015b8281111561032757825182559160200191906001019061030c565b5b5090506103359190610339565b5090565b61035b91905b8082111561035757600081600090555060010161033f565b5090565b905600a165627a7a7230582084b288b651af9249ae78ea29e6cfb8ed5c403b3b16f4678d57b748c67719d5b50029",
  "source": "pragma solidity ^0.4.23;\r\ncontract Mortal {\r\n    /* Define variable owner of the type address */\r\n    address owner;\r\n    /* This function is executed at initialization and sets the owner of the contract */\r\n    constructor() public { owner = msg.sender; }\r\n    /* Function to recover the funds on the contract */\r\n    function kill() public {\r\n        if (msg.sender == owner) \r\n            selfdestruct(owner); \r\n    }\r\n}\r\n\r\ncontract Greeter is Mortal {\r\n    /* Define variable greeting of the type string */\r\n    string greeting;\r\n    /* This runs when the contract is executed */\r\n    constructor(string _greeting) public {\r\n        greeting = _greeting;\r\n    }\r\n    /* change greeting */\r\n    function changeGreeting(string _greeting) public {\r\n        greeting = _greeting;\r\n    }\r\n    /* Main function */\r\n    function greet() public view returns (string) {\r\n        return greeting;\r\n    }\r\n}",
  "sourcePath": "D:\\trial\\blockchain_examples\\GreeterSmartContract\\source\\contracts\\Greeter.sol",
  "compiler": {
    "name": "solc",
    "version": "0.4.26+commit.4563c3fc.Emscripten.clang"
  },
  "schemaVersion": "2.0.3",
  "updatedAt": "2021-03-17T15:39:09.287Z"
}