{
  "contractName": "Mortal",
  "abi": [
    {
      "inputs": [],
      "payable": false,
      "stateMutability": "nonpayable",
      "type": "constructor"
    },
    {
      "constant": false,
      "inputs": [],
      "name": "kill",
      "outputs": [],
      "payable": false,
      "stateMutability": "nonpayable",
      "type": "function"
    }
  ],
  "bytecode": "0x608060405234801561001057600080fd5b50336000806101000a81548173ffffffffffffffffffffffffffffffffffffffff021916908373ffffffffffffffffffffffffffffffffffffffff160217905550610114806100606000396000f300608060405260043610603f576000357c0100000000000000000000000000000000000000000000000000000000900463ffffffff16806341c0e1b5146044575b600080fd5b348015604f57600080fd5b5060566058565b005b6000809054906101000a900473ffffffffffffffffffffffffffffffffffffffff1673ffffffffffffffffffffffffffffffffffffffff163373ffffffffffffffffffffffffffffffffffffffff16141560e6576000809054906101000a900473ffffffffffffffffffffffffffffffffffffffff1673ffffffffffffffffffffffffffffffffffffffff16ff5b5600a165627a7a72305820b5ad31383eb8ead60fdf3031296f1c2251ebf0c7a297a0c999914d4c40801fc20029",
  "source": "pragma solidity ^0.4.23;\r\ncontract Mortal {\r\n    /* Define variable owner of the type address */\r\n    address owner;\r\n    /* This function is executed at initialization and sets the owner of the contract */\r\n    constructor() public { owner = msg.sender; }\r\n    /* Function to recover the funds on the contract */\r\n    function kill() public {\r\n        if (msg.sender == owner) \r\n            selfdestruct(owner); \r\n    }\r\n}\r\n\r\ncontract Greeter is Mortal {\r\n    /* Define variable greeting of the type string */\r\n    string greeting;\r\n    /* This runs when the contract is executed */\r\n    constructor(string _greeting) public {\r\n        greeting = _greeting;\r\n    }\r\n    /* change greeting */\r\n    function changeGreeting(string _greeting) public {\r\n        greeting = _greeting;\r\n    }\r\n    /* Main function */\r\n    function greet() public view returns (string) {\r\n        return greeting;\r\n    }\r\n}",
  "sourcePath": "D:\\trial\\blockchain_examples\\GreeterSmartContract\\source\\contracts\\Greeter.sol",
  "compiler": {
    "name": "solc",
    "version": "0.4.26+commit.4563c3fc.Emscripten.clang"
  },
  "schemaVersion": "2.0.3",
  "updatedAt": "2021-03-17T15:18:56.157Z"
}