{
  "contractName": "ManageOrder",
  "abi": [
    {
      "constant": true,
      "inputs": [],
      "name": "result",
      "outputs": [
        {
          "name": "",
          "type": "string"
        }
      ],
      "payable": false,
      "stateMutability": "view",
      "type": "function"
    },
    {
      "constant": true,
      "inputs": [],
      "name": "owner",
      "outputs": [
        {
          "name": "",
          "type": "address"
        }
      ],
      "payable": false,
      "stateMutability": "view",
      "type": "function"
    },
    {
      "inputs": [],
      "payable": false,
      "stateMutability": "nonpayable",
      "type": "constructor"
    },
    {
      "payable": true,
      "stateMutability": "payable",
      "type": "fallback"
    },
    {
      "constant": false,
      "inputs": [
        {
          "name": "_value",
          "type": "uint256"
        }
      ],
      "name": "depositEther",
      "outputs": [
        {
          "name": "success",
          "type": "bool"
        }
      ],
      "payable": false,
      "stateMutability": "nonpayable",
      "type": "function"
    },
    {
      "constant": false,
      "inputs": [
        {
          "name": "_name",
          "type": "string"
        },
        {
          "name": "_phone",
          "type": "string"
        },
        {
          "name": "_post_code",
          "type": "string"
        },
        {
          "name": "_park_address",
          "type": "string"
        }
      ],
      "name": "newParking",
      "outputs": [],
      "payable": false,
      "stateMutability": "nonpayable",
      "type": "function"
    },
    {
      "constant": false,
      "inputs": [
        {
          "name": "_name",
          "type": "string"
        },
        {
          "name": "_phone",
          "type": "string"
        }
      ],
      "name": "newBuyer",
      "outputs": [],
      "payable": false,
      "stateMutability": "nonpayable",
      "type": "function"
    },
    {
      "constant": false,
      "inputs": [
        {
          "name": "_parkingNo",
          "type": "uint256"
        },
        {
          "name": "_price",
          "type": "uint256"
        },
        {
          "name": "_avail_hour",
          "type": "string"
        },
        {
          "name": "_new_hour",
          "type": "string"
        }
      ],
      "name": "newOrder",
      "outputs": [],
      "payable": false,
      "stateMutability": "nonpayable",
      "type": "function"
    },
    {
      "constant": false,
      "inputs": [
        {
          "name": "_parkingNo",
          "type": "uint256"
        }
      ],
      "name": "queryParking",
      "outputs": [
        {
          "name": "_hour",
          "type": "string"
        }
      ],
      "payable": false,
      "stateMutability": "nonpayable",
      "type": "function"
    },
    {
      "constant": true,
      "inputs": [],
      "name": "queryBuyer",
      "outputs": [
        {
          "name": "",
          "type": "string"
        }
      ],
      "payable": false,
      "stateMutability": "view",
      "type": "function"
    },
    {
      "constant": true,
      "inputs": [],
      "name": "numParking",
      "outputs": [
        {
          "name": "",
          "type": "string"
        }
      ],
      "payable": false,
      "stateMutability": "view",
      "type": "function"
    },
    {
      "constant": false,
      "inputs": [
        {
          "name": "_parkingNo",
          "type": "uint256"
        },
        {
          "name": "_avail_hour",
          "type": "string"
        }
      ],
      "name": "manageParking",
      "outputs": [],
      "payable": false,
      "stateMutability": "nonpayable",
      "type": "function"
    },
    {
      "constant": false,
      "inputs": [],
      "name": "listedOrder",
      "outputs": [
        {
          "name": "",
          "type": "string"
        }
      ],
      "payable": false,
      "stateMutability": "nonpayable",
      "type": "function"
    },
    {
      "constant": false,
      "inputs": [
        {
          "name": "order_no",
          "type": "uint256"
        }
      ],
      "name": "abortOrder",
      "outputs": [],
      "payable": false,
      "stateMutability": "nonpayable",
      "type": "function"
    },
    {
      "constant": false,
      "inputs": [
        {
          "name": "order_no",
          "type": "uint256"
        }
      ],
      "name": "confirmOrder",
      "outputs": [],
      "payable": false,
      "stateMutability": "nonpayable",
      "type": "function"
    },
    {
      "constant": true,
      "inputs": [],
      "name": "uintto",
      "outputs": [
        {
          "name": "",
          "type": "string"
        }
      ],
      "payable": false,
      "stateMutability": "view",
      "type": "function"
    },
    {
      "constant": true,
      "inputs": [
        {
          "name": "v",
          "type": "uint256"
        }
      ],
      "name": "uintToString",
      "outputs": [
        {
          "name": "str",
          "type": "string"
        }
      ],
      "payable": false,
      "stateMutability": "view",
      "type": "function"
    },
    {
      "constant": true,
      "inputs": [
        {
          "name": "_state",
          "type": "uint8"
        }
      ],
      "name": "enumToString",
      "outputs": [
        {
          "name": "str",
          "type": "string"
        }
      ],
      "payable": false,
      "stateMutability": "view",
      "type": "function"
    },
    {
      "constant": false,
      "inputs": [
        {
          "name": "x",
          "type": "address"
        }
      ],
      "name": "addressToString",
      "outputs": [
        {
          "name": "",
          "type": "string"
        }
      ],
      "payable": false,
      "stateMutability": "nonpayable",
      "type": "function"
    }
  ],
  "bytecode": "0x608060405234801561001057600080fd5b50336000806101000a81548173ffffffffffffffffffffffffffffffffffffffff021916908373ffffffffffffffffffffffffffffffffffffffff16021790555060006001819055506000600281905550613ece806100706000396000f3006080604052600436106100f1576000357c0100000000000000000000000000000000000000000000000000000000900463ffffffff16806303c1463c1461014057806326839f17146101d0578063395ff5841461021557806340e161bf146102a55780634122a29e146103545780635e57966d14610381578063653721471461043d57806370ca32af146104cd5780638ac7d79c1461055d5780638da5cb5b1461058a5780639d4f621e146105e1578063b6e3069a14610671578063bddc66f21461071a578063c0044b8f146107dd578063d9183be514610883578063e9395679146109be578063ef52c8c214610a64575b34600860003373ffffffffffffffffffffffffffffffffffffffff1673ffffffffffffffffffffffffffffffffffffffff16815260200190815260200160002060008282540192505081905550005b34801561014c57600080fd5b50610155610ad7565b6040518080602001828103825283818151815260200191508051906020019080838360005b8381101561019557808201518184015260208101905061017a565b50505050905090810190601f1680156101c25780820380516001836020036101000a031916815260200191505b509250505060405180910390f35b3480156101dc57600080fd5b506101fb60048036038101908080359060200190929190505050610f38565b604051808215151515815260200191505060405180910390f35b34801561022157600080fd5b5061022a610fe1565b6040518080602001828103825283818151815260200191508051906020019080838360005b8381101561026a57808201518184015260208101905061024f565b50505050905090810190601f1680156102975780820380516001836020036101000a031916815260200191505b509250505060405180910390f35b3480156102b157600080fd5b50610352600480360381019080803590602001908201803590602001908080601f0160208091040260200160405190810160405280939291908181526020018383808284378201915050505050509192919290803590602001908201803590602001908080601f0160208091040260200160405190810160405280939291908181526020018383808284378201915050505050509192919290505050611083565b005b34801561036057600080fd5b5061037f60048036038101908080359060200190929190505050611237565b005b34801561038d57600080fd5b506103c2600480360381019080803573ffffffffffffffffffffffffffffffffffffffff1690602001909291905050506115fe565b6040518080602001828103825283818151815260200191508051906020019080838360005b838110156104025780820151818401526020810190506103e7565b50505050905090810190601f16801561042f5780820380516001836020036101000a031916815260200191505b509250505060405180910390f35b34801561044957600080fd5b506104526116ea565b6040518080602001828103825283818151815260200191508051906020019080838360005b83811015610492578082015181840152602081019050610477565b50505050905090810190601f1680156104bf5780820380516001836020036101000a031916815260200191505b509250505060405180910390f35b3480156104d957600080fd5b506104e2611788565b6040518080602001828103825283818151815260200191508051906020019080838360005b83811015610522578082015181840152602081019050610507565b50505050905090810190601f16801561054f5780820380516001836020036101000a031916815260200191505b509250505060405180910390f35b34801561056957600080fd5b5061058860048036038101908080359060200190929190505050611c5d565b005b34801561059657600080fd5b5061059f611e88565b604051808273ffffffffffffffffffffffffffffffffffffffff1673ffffffffffffffffffffffffffffffffffffffff16815260200191505060405180910390f35b3480156105ed57600080fd5b506105f6611ead565b6040518080602001828103825283818151815260200191508051906020019080838360005b8381101561063657808201518184015260208101905061061b565b50505050905090810190601f1680156106635780820380516001836020036101000a031916815260200191505b509250505060405180910390f35b34801561067d57600080fd5b5061069f600480360381019080803560ff169060200190929190505050612134565b6040518080602001828103825283818151815260200191508051906020019080838360005b838110156106df5780820151818401526020810190506106c4565b50505050905090810190601f16801561070c5780820380516001836020036101000a031916815260200191505b509250505060405180910390f35b34801561072657600080fd5b506107db6004803603810190808035906020019092919080359060200190929190803590602001908201803590602001908080601f0160208091040260200160405190810160405280939291908181526020018383808284378201915050505050509192919290803590602001908201803590602001908080601f01602080910402602001604051908101604052809392919081815260200183838082843782019150505050505091929192905050506121c7565b005b3480156107e957600080fd5b5061080860048036038101908080359060200190929190505050612573565b6040518080602001828103825283818151815260200191508051906020019080838360005b8381101561084857808201518184015260208101905061082d565b50505050905090810190601f1680156108755780820380516001836020036101000a031916815260200191505b509250505060405180910390f35b34801561088f57600080fd5b506109bc600480360381019080803590602001908201803590602001908080601f0160208091040260200160405190810160405280939291908181526020018383808284378201915050505050509192919290803590602001908201803590602001908080601f0160208091040260200160405190810160405280939291908181526020018383808284378201915050505050509192919290803590602001908201803590602001908080601f0160208091040260200160405190810160405280939291908181526020018383808284378201915050505050509192919290803590602001908201803590602001908080601f01602080910402602001604051908101604052809392919081815260200183838082843782019150505050505091929192905050506129b9565b005b3480156109ca57600080fd5b506109e960048036038101908080359060200190929190505050612cfd565b6040518080602001828103825283818151815260200191508051906020019080838360005b83811015610a29578082015181840152602081019050610a0e565b50505050905090810190601f168015610a565780820380516001836020036101000a031916815260200191505b509250505060405180910390f35b348015610a7057600080fd5b50610ad560048036038101908080359060200190929190803590602001908201803590602001908080601f0160208091040260200160405190810160405280939291908181526020018383808284378201915050505050509192919290505050612edb565b005b60606000610ae3613c6a565b6000606080606080606060009750600095505b6001805401861015610e11573373ffffffffffffffffffffffffffffffffffffffff166006600088815260200190815260200160002060010160009054906101000a900473ffffffffffffffffffffffffffffffffffffffff1673ffffffffffffffffffffffffffffffffffffffff161480610bd357503373ffffffffffffffffffffffffffffffffffffffff166006600088815260200190815260200160002060020160009054906101000a900473ffffffffffffffffffffffffffffffffffffffff1673ffffffffffffffffffffffffffffffffffffffff16145b8015610c5e575060026003811115610be757fe5b6006600088815260200190815260200160002060040160009054906101000a900460ff166003811115610c1657fe5b14158015610c5d5750600380811115610c2b57fe5b6006600088815260200190815260200160002060040160009054906101000a900460ff166003811115610c5a57fe5b14155b5b8015610c6a5750600488105b15610e0457610c8e6006600088815260200190815260200160002060000154612cfd565b9450610caf6006600088815260200190815260200160002060030154612cfd565b9350610cdd6006600088815260200190815260200160002060040160009054906101000a900460ff16612134565b9250610cfe6006600088815260200190815260200160002060060154612cfd565b9150610d1f6006600088815260200190815260200160002060070154612cfd565b9050610de5610d2f86868661300b565b8383600660008b81526020019081526020016000206005018054600181600116156101000203166002900480601f016020809104026020016040519081016040528092919081815260200182805460018160011615610100020316600290048015610ddb5780601f10610db057610100808354040283529160200191610ddb565b820191906000526020600020905b815481529060010190602001808311610dbe57829003601f168201915b505050505061336a565b8789600481101515610df357fe5b602002018190525087806001019850505b8580600101965050610af6565b610e7a876000600481101515610e2357fe5b6020020151886001600481101515610e3757fe5b6020020151896002600481101515610e4b57fe5b60200201518a6003600481101515610e5f57fe5b60200201516020604051908101604052806000815250613855565b60059080519060200190610e8f929190613c92565b5060058054600181600116156101000203166002900480601f016020809104026020016040519081016040528092919081815260200182805460018160011615610100020316600290048015610f265780601f10610efb57610100808354040283529160200191610f26565b820191906000526020600020905b815481529060010190602001808311610f0957829003601f168201915b50505050509850505050505050505090565b600080600860003373ffffffffffffffffffffffffffffffffffffffff1673ffffffffffffffffffffffffffffffffffffffff168152602001908152602001600020541015610f8a5760009050610fdc565b81600860003373ffffffffffffffffffffffffffffffffffffffff1673ffffffffffffffffffffffffffffffffffffffff16815260200190815260200160002060008282540192505081905550600190505b919050565b606060058054600181600116156101000203166002900480601f0160208091040260200160405190810160405280929190818152602001828054600181600116156101000203166002900480156110795780601f1061104e57610100808354040283529160200191611079565b820191906000526020600020905b81548152906001019060200180831161105c57829003601f168201915b5050505050905090565b61108b613d12565b6000600960003373ffffffffffffffffffffffffffffffffffffffff1673ffffffffffffffffffffffffffffffffffffffff168152602001908152602001600020600001805460018160011615610100020316600290049050141561118357604080519081016040528084815260200183815250905080600960003373ffffffffffffffffffffffffffffffffffffffff1673ffffffffffffffffffffffffffffffffffffffff168152602001908152602001600020600082015181600001908051906020019061115d929190613d2c565b50602082015181600101908051906020019061117a929190613d2c565b50905050611232565b82600960003373ffffffffffffffffffffffffffffffffffffffff1673ffffffffffffffffffffffffffffffffffffffff16815260200190815260200160002060000190805190602001906111d9929190613c92565b5081600960003373ffffffffffffffffffffffffffffffffffffffff1673ffffffffffffffffffffffffffffffffffffffff1681526020019081526020016000206001019080519060200190611230929190613c92565b505b505050565b60008060018381600381111561124957fe5b6006600083815260200190815260200160002060040160009054906101000a900460ff16600381111561127857fe5b14151561128457600080fd5b6006600086815260200190815260200160002060010160009054906101000a900473ffffffffffffffffffffffffffffffffffffffff1693506006600086815260200190815260200160002060020160009054906101000a900473ffffffffffffffffffffffffffffffffffffffff1692506006600086815260200190815260200160002060010160009054906101000a900473ffffffffffffffffffffffffffffffffffffffff1673ffffffffffffffffffffffffffffffffffffffff163373ffffffffffffffffffffffffffffffffffffffff1614156114755760036006600087815260200190815260200160002060040160006101000a81548160ff0219169083600381111561139357fe5b02179055508373ffffffffffffffffffffffffffffffffffffffff166108fc600a6008600660008a815260200190815260200160002060060154028115156113d757fe5b049081150290604051600060405180830381858888f19350505050158015611403573d6000803e3d6000fd5b508273ffffffffffffffffffffffffffffffffffffffff166108fc600a6002600660008a8152602001908152602001600020600601540281151561144357fe5b049081150290604051600060405180830381858888f1935050505015801561146f573d6000803e3d6000fd5b506115f7565b6006600086815260200190815260200160002060020160009054906101000a900473ffffffffffffffffffffffffffffffffffffffff1673ffffffffffffffffffffffffffffffffffffffff163373ffffffffffffffffffffffffffffffffffffffff1614156115f65760036006600087815260200190815260200160002060040160006101000a81548160ff0219169083600381111561151257fe5b02179055508373ffffffffffffffffffffffffffffffffffffffff166108fc600a600c600660008a8152602001908152602001600020600601540281151561155657fe5b049081150290604051600060405180830381858888f19350505050158015611582573d6000803e3d6000fd5b50600a60026006600088815260200190815260200160002060060154028115156115a857fe5b04600860008573ffffffffffffffffffffffffffffffffffffffff1673ffffffffffffffffffffffffffffffffffffffff168152602001908152602001600020600082825403925050819055505b5b5050505050565b606080600060146040519080825280601f01601f1916602001820160405280156116375781602001602082028038833980820191505090505b509150600090505b60148110156116e0578060130360080260020a8473ffffffffffffffffffffffffffffffffffffffff1681151561167257fe5b047f01000000000000000000000000000000000000000000000000000000000000000282828151811015156116a357fe5b9060200101907effffffffffffffffffffffffffffffffffffffffffffffffffffffffffffff1916908160001a905350808060010191505061163f565b8192505050919050565b60058054600181600116156101000203166002900480601f0160208091040260200160405190810160405280929190818152602001828054600181600116156101000203166002900480156117805780601f1061175557610100808354040283529160200191611780565b820191906000526020600020905b81548152906001019060200180831161176357829003601f168201915b505050505081565b60606000600190505b60025481111515611bbc573373ffffffffffffffffffffffffffffffffffffffff1660076000600254815260200190815260200160002060010160009054906101000a900473ffffffffffffffffffffffffffffffffffffffff1673ffffffffffffffffffffffffffffffffffffffff161415611baf57611b98611a266007600060025481526020019081526020016000206002018054600181600116156101000203166002900480601f0160208091040260200160405190810160405280929190818152602001828054600181600116156101000203166002900480156118ba5780601f1061188f576101008083540402835291602001916118ba565b820191906000526020600020905b81548152906001019060200180831161189d57829003601f168201915b50505050506007600060025481526020019081526020016000206003018054600181600116156101000203166002900480601f01602080910402602001604051908101604052809291908181526020018280546001816001161561010002031660029004801561196b5780601f106119405761010080835404028352916020019161196b565b820191906000526020600020905b81548152906001019060200180831161194e57829003601f168201915b50505050506007600060025481526020019081526020016000206004018054600181600116156101000203166002900480601f016020809104026020016040519081016040528092919081815260200182805460018160011615610100020316600290048015611a1c5780601f106119f157610100808354040283529160200191611a1c565b820191906000526020600020905b8154815290600101906020018083116119ff57829003601f168201915b505050505061300b565b6007600060025481526020019081526020016000206005018054600181600116156101000203166002900480601f016020809104026020016040519081016040528092919081815260200182805460018160011615610100020316600290048015611ad25780601f10611aa757610100808354040283529160200191611ad2565b820191906000526020600020905b815481529060010190602001808311611ab557829003601f168201915b50505050506007600060025481526020019081526020016000206006018054600181600116156101000203166002900480601f016020809104026020016040519081016040528092919081815260200182805460018160011615610100020316600290048015611b835780601f10611b5857610100808354040283529160200191611b83565b820191906000526020600020905b815481529060010190602001808311611b6657829003601f168201915b5050505050611b93600254612cfd565b61336a565b60059080519060200190611bad929190613c92565b505b8080600101915050611791565b60058054600181600116156101000203166002900480601f016020809104026020016040519081016040528092919081815260200182805460018160011615610100020316600290048015611c525780601f10611c2757610100808354040283529160200191611c52565b820191906000526020600020905b815481529060010190602001808311611c3557829003601f168201915b505050505091505090565b6000816006600082815260200190815260200160002060010160009054906101000a900473ffffffffffffffffffffffffffffffffffffffff1673ffffffffffffffffffffffffffffffffffffffff163373ffffffffffffffffffffffffffffffffffffffff16141515611cd057600080fd5b600183816003811115611cdf57fe5b6006600083815260200190815260200160002060040160009054906101000a900460ff166003811115611d0e57fe5b141515611d1a57600080fd5b60026006600087815260200190815260200160002060040160006101000a81548160ff02191690836003811115611d4d57fe5b02179055506006600086815260200190815260200160002060020160009054906101000a900473ffffffffffffffffffffffffffffffffffffffff1693508373ffffffffffffffffffffffffffffffffffffffff166108fc60066000888152602001908152602001600020600601549081150290604051600060405180830381858888f19350505050158015611de7573d6000803e3d6000fd5b506006600086815260200190815260200160002060060154600860006006600089815260200190815260200160002060020160009054906101000a900473ffffffffffffffffffffffffffffffffffffffff1673ffffffffffffffffffffffffffffffffffffffff1673ffffffffffffffffffffffffffffffffffffffff168152602001908152602001600020600082825401925050819055505050505050565b6000809054906101000a900473ffffffffffffffffffffffffffffffffffffffff1681565b606061207e600960003373ffffffffffffffffffffffffffffffffffffffff1673ffffffffffffffffffffffffffffffffffffffff1681526020019081526020016000206000018054600181600116156101000203166002900480601f016020809104026020016040519081016040528092919081815260200182805460018160011615610100020316600290048015611f885780601f10611f5d57610100808354040283529160200191611f88565b820191906000526020600020905b815481529060010190602001808311611f6b57829003601f168201915b5050505050600960003373ffffffffffffffffffffffffffffffffffffffff1673ffffffffffffffffffffffffffffffffffffffff1681526020019081526020016000206001018054600181600116156101000203166002900480601f0160208091040260200160405190810160405280929190818152602001828054600181600116156101000203166002900480156120635780601f1061203857610100808354040283529160200191612063565b820191906000526020600020905b81548152906001019060200180831161204657829003601f168201915b5050505050602060405190810160405280600081525061300b565b60059080519060200190612093929190613c92565b5060058054600181600116156101000203166002900480601f01602080910402602001604051908101604052809291908181526020018280546001816001161561010002031660029004801561212a5780601f106120ff5761010080835404028352916020019161212a565b820191906000526020600020905b81548152906001019060200180831161210d57829003601f168201915b5050505050905090565b6060600080600381111561214457fe5b83600381111561215057fe5b141561215f57600190506121b6565b6001600381111561216c57fe5b83600381111561217857fe5b141561218757600290506121b5565b6002600381111561219457fe5b8360038111156121a057fe5b14156121af57600390506121b4565b600490505b5b5b6121bf81612cfd565b915050919050565b6121cf613dac565b8380600860003373ffffffffffffffffffffffffffffffffffffffff1673ffffffffffffffffffffffffffffffffffffffff168152602001908152602001600020541015151561221e57600080fd5b8560006001026007600083815260200190815260200160002060040160405180828054600181600116156101000203166002900480156122955780601f10612273576101008083540402835291820191612295565b820191906000526020600020905b815481529060010190602001808311612281575b5050915050604051809103902060001916141515156122b357600080fd5b60018054016001819055506101006040519081016040528060015481526020013373ffffffffffffffffffffffffffffffffffffffff168152602001600760008a815260200190815260200160002060010160009054906101000a900473ffffffffffffffffffffffffffffffffffffffff1673ffffffffffffffffffffffffffffffffffffffff1681526020018881526020016000600381111561235457fe5b8152602001858152602001878152602001428152509250826006600060015481526020019081526020016000206000820151816000015560208201518160010160006101000a81548173ffffffffffffffffffffffffffffffffffffffff021916908373ffffffffffffffffffffffffffffffffffffffff16021790555060408201518160020160006101000a81548173ffffffffffffffffffffffffffffffffffffffff021916908373ffffffffffffffffffffffffffffffffffffffff1602179055506060820151816003015560808201518160040160006101000a81548160ff0219169083600381111561244757fe5b021790555060a0820151816005019080519060200190612468929190613d2c565b5060c0820151816006015560e08201518160070155905050846007600089815260200190815260200160002060050190805190602001906124aa929190613c92565b50856008600060066000600154815260200190815260200160002060010160009054906101000a900473ffffffffffffffffffffffffffffffffffffffff1673ffffffffffffffffffffffffffffffffffffffff1673ffffffffffffffffffffffffffffffffffffffff16815260200190815260200160002060008282540392505081905550600160066000600154815260200190815260200160002060040160006101000a81548160ff0219169083600381111561256557fe5b021790555050505050505050565b606061290161278d600760008581526020019081526020016000206002018054600181600116156101000203166002900480601f0160208091040260200160405190810160405280929190818152602001828054600181600116156101000203166002900480156126255780601f106125fa57610100808354040283529160200191612625565b820191906000526020600020905b81548152906001019060200180831161260857829003601f168201915b5050505050600760008681526020019081526020016000206003018054600181600116156101000203166002900480601f0160208091040260200160405190810160405280929190818152602001828054600181600116156101000203166002900480156126d45780601f106126a9576101008083540402835291602001916126d4565b820191906000526020600020905b8154815290600101906020018083116126b757829003601f168201915b5050505050600760008781526020019081526020016000206004018054600181600116156101000203166002900480601f0160208091040260200160405190810160405280929190818152602001828054600181600116156101000203166002900480156127835780601f1061275857610100808354040283529160200191612783565b820191906000526020600020905b81548152906001019060200180831161276657829003601f168201915b505050505061300b565b600760008581526020019081526020016000206005018054600181600116156101000203166002900480601f0160208091040260200160405190810160405280929190818152602001828054600181600116156101000203166002900480156128375780601f1061280c57610100808354040283529160200191612837565b820191906000526020600020905b81548152906001019060200180831161281a57829003601f168201915b5050505050600760008681526020019081526020016000206006018054600181600116156101000203166002900480601f0160208091040260200160405190810160405280929190818152602001828054600181600116156101000203166002900480156128e65780601f106128bb576101008083540402835291602001916128e6565b820191906000526020600020905b8154815290600101906020018083116128c957829003601f168201915b5050505050602060405190810160405280600081525061336a565b60059080519060200190612916929190613c92565b5060058054600181600116156101000203166002900480601f0160208091040260200160405190810160405280929190818152602001828054600181600116156101000203166002900480156129ad5780601f10612982576101008083540402835291602001916129ad565b820191906000526020600020905b81548152906001019060200180831161299057829003601f168201915b50505050509050919050565b60008060006129c6613e29565b60009350600191505b60025482111515612a5d573373ffffffffffffffffffffffffffffffffffffffff1660076000600254815260200190815260200160002060010160009054906101000a900473ffffffffffffffffffffffffffffffffffffffff1673ffffffffffffffffffffffffffffffffffffffff161415612a50576001935060025492505b81806001019250506129cf565b831515612c465760026000815480929190600101919050555060e06040519081016040528060025481526020013373ffffffffffffffffffffffffffffffffffffffff168152602001898152602001888152602001878152602001608060405190810160405280604881526020017f303030303030303030303030303030303030303030303030303030303030303081526020017f303030303030303030303030303030303030303030303030303030303030303081526020017f30303030303030300000000000000000000000000000000000000000000000008152508152602001868152509050806007600060025481526020019081526020016000206000820151816000015560208201518160010160006101000a81548173ffffffffffffffffffffffffffffffffffffffff021916908373ffffffffffffffffffffffffffffffffffffffff1602179055506040820151816002019080519060200190612bc9929190613d2c565b506060820151816003019080519060200190612be6929190613d2c565b506080820151816004019080519060200190612c03929190613d2c565b5060a0820151816005019080519060200190612c20929190613d2c565b5060c0820151816006019080519060200190612c3d929190613d2c565b50905050612cf3565b87600760008581526020019081526020016000206002019080519060200190612c70929190613c92565b5086600760008581526020019081526020016000206003019080519060200190612c9b929190613c92565b5085600760008581526020019081526020016000206004019080519060200190612cc6929190613c92565b5084600760008581526020019081526020016000206006019080519060200190612cf1929190613c92565b505b5050505050505050565b6060600060606000806060600060649550856040519080825280601f01601f191660200182016040528015612d415781602001602082028038833980820191505090505b509450600093505b600088141515612de057600a88811515612d5f57fe5b069250600a88811515612d6e57fe5b049750826030017f0100000000000000000000000000000000000000000000000000000000000000028585806001019650815181101515612dab57fe5b9060200101907effffffffffffffffffffffffffffffffffffffffffffffffffffffffffffff1916908160001a905350612d49565b600184016040519080825280601f01601f191660200182016040528015612e165781602001602082028038833980820191505090505b509150600090505b8381111515612ecd5784818503815181101515612e3757fe5b9060200101517f010000000000000000000000000000000000000000000000000000000000000090047f0100000000000000000000000000000000000000000000000000000000000000028282815181101515612e9057fe5b9060200101907effffffffffffffffffffffffffffffffffffffffffffffffffffffffffffff1916908160001a9053508080600101915050612e1e565b819650505050505050919050565b816000600102600760008381526020019081526020016000206004016040518082805460018160011615610100020316600290048015612f525780601f10612f30576101008083540402835291820191612f52565b820191906000526020600020905b815481529060010190602001808311612f3e575b505091505060405180910390206000191614151515612f7057600080fd5b3373ffffffffffffffffffffffffffffffffffffffff166007600085815260200190815260200160002060010160009054906101000a900473ffffffffffffffffffffffffffffffffffffffff1673ffffffffffffffffffffffffffffffffffffffff1614156130065781600760008581526020019081526020016000206005019080519060200190613004929190613c92565b505b505050565b6060806060806060806000808a965089955088945060038551875189510101016040519080825280601f01601f19166020018201604052801561305d5781602001602082028038833980820191505090505b50935083925060009150600090505b865181101561311f57868181518110151561308357fe5b9060200101517f010000000000000000000000000000000000000000000000000000000000000090047f01000000000000000000000000000000000000000000000000000000000000000283838060010194508151811015156130e257fe5b9060200101907effffffffffffffffffffffffffffffffffffffffffffffffffffffffffffff1916908160001a905350808060010191505061306c565b7f2a00000000000000000000000000000000000000000000000000000000000000838380600101945081518110151561315457fe5b9060200101907effffffffffffffffffffffffffffffffffffffffffffffffffffffffffffff1916908160001a905350600090505b855181101561323c5785818151811015156131a057fe5b9060200101517f010000000000000000000000000000000000000000000000000000000000000090047f01000000000000000000000000000000000000000000000000000000000000000283838060010194508151811015156131ff57fe5b9060200101907effffffffffffffffffffffffffffffffffffffffffffffffffffffffffffff1916908160001a9053508080600101915050613189565b7f2a00000000000000000000000000000000000000000000000000000000000000838380600101945081518110151561327157fe5b9060200101907effffffffffffffffffffffffffffffffffffffffffffffffffffffffffffff1916908160001a905350600090505b84518110156133595784818151811015156132bd57fe5b9060200101517f010000000000000000000000000000000000000000000000000000000000000090047f010000000000000000000000000000000000000000000000000000000000000002838380600101945081518110151561331c57fe5b9060200101907effffffffffffffffffffffffffffffffffffffffffffffffffffffffffffff1916908160001a90535080806001019150506132a6565b829750505050505050509392505050565b60608060608060608060606000808c97508b96508a955089945060048551875189518b51010101016040519080825280601f01601f1916602001820160405280156133c45781602001602082028038833980820191505090505b50935083925060009150600090505b87518110156134865787818151811015156133ea57fe5b9060200101517f010000000000000000000000000000000000000000000000000000000000000090047f010000000000000000000000000000000000000000000000000000000000000002838380600101945081518110151561344957fe5b9060200101907effffffffffffffffffffffffffffffffffffffffffffffffffffffffffffff1916908160001a90535080806001019150506133d3565b7f2a0000000000000000000000000000000000000000000000000000000000000083838060010194508151811015156134bb57fe5b9060200101907effffffffffffffffffffffffffffffffffffffffffffffffffffffffffffff1916908160001a905350600090505b86518110156135a357868181518110151561350757fe5b9060200101517f010000000000000000000000000000000000000000000000000000000000000090047f010000000000000000000000000000000000000000000000000000000000000002838380600101945081518110151561356657fe5b9060200101907effffffffffffffffffffffffffffffffffffffffffffffffffffffffffffff1916908160001a90535080806001019150506134f0565b7f2a0000000000000000000000000000000000000000000000000000000000000083838060010194508151811015156135d857fe5b9060200101907effffffffffffffffffffffffffffffffffffffffffffffffffffffffffffff1916908160001a905350600090505b85518110156136c057858181518110151561362457fe5b9060200101517f010000000000000000000000000000000000000000000000000000000000000090047f010000000000000000000000000000000000000000000000000000000000000002838380600101945081518110151561368357fe5b9060200101907effffffffffffffffffffffffffffffffffffffffffffffffffffffffffffff1916908160001a905350808060010191505061360d565b7f2a0000000000000000000000000000000000000000000000000000000000000083838060010194508151811015156136f557fe5b9060200101907effffffffffffffffffffffffffffffffffffffffffffffffffffffffffffff1916908160001a905350600090505b84518110156137dd57848181518110151561374157fe5b9060200101517f010000000000000000000000000000000000000000000000000000000000000090047f01000000000000000000000000000000000000000000000000000000000000000283838060010194508151811015156137a057fe5b9060200101907effffffffffffffffffffffffffffffffffffffffffffffffffffffffffffff1916908160001a905350808060010191505061372a565b7f2500000000000000000000000000000000000000000000000000000000000000838380600101945081518110151561381257fe5b9060200101907effffffffffffffffffffffffffffffffffffffffffffffffffffffffffffff1916908160001a9053508298505050505050505050949350505050565b6060806060806060806060806000808e98508d97508c96508b95508a94508451865188518a518c51010101016040519080825280601f01601f1916602001820160405280156138b35781602001602082028038833980820191505090505b50935083925060009150600090505b88518110156139755788818151811015156138d957fe5b9060200101517f010000000000000000000000000000000000000000000000000000000000000090047f010000000000000000000000000000000000000000000000000000000000000002838380600101945081518110151561393857fe5b9060200101907effffffffffffffffffffffffffffffffffffffffffffffffffffffffffffff1916908160001a90535080806001019150506138c2565b600090505b8751811015613a2d57878181518110151561399157fe5b9060200101517f010000000000000000000000000000000000000000000000000000000000000090047f01000000000000000000000000000000000000000000000000000000000000000283838060010194508151811015156139f057fe5b9060200101907effffffffffffffffffffffffffffffffffffffffffffffffffffffffffffff1916908160001a905350808060010191505061397a565b600090505b8651811015613ae5578681815181101515613a4957fe5b9060200101517f010000000000000000000000000000000000000000000000000000000000000090047f0100000000000000000000000000000000000000000000000000000000000000028383806001019450815181101515613aa857fe5b9060200101907effffffffffffffffffffffffffffffffffffffffffffffffffffffffffffff1916908160001a9053508080600101915050613a32565b600090505b8551811015613b9d578581815181101515613b0157fe5b9060200101517f010000000000000000000000000000000000000000000000000000000000000090047f0100000000000000000000000000000000000000000000000000000000000000028383806001019450815181101515613b6057fe5b9060200101907effffffffffffffffffffffffffffffffffffffffffffffffffffffffffffff1916908160001a9053508080600101915050613aea565b600090505b8451811015613c55578481815181101515613bb957fe5b9060200101517f010000000000000000000000000000000000000000000000000000000000000090047f0100000000000000000000000000000000000000000000000000000000000000028383806001019450815181101515613c1857fe5b9060200101907effffffffffffffffffffffffffffffffffffffffffffffffffffffffffffff1916908160001a9053508080600101915050613ba2565b82995050505050505050505095945050505050565b6080604051908101604052806004905b6060815260200190600190039081613c7a5790505090565b828054600181600116156101000203166002900490600052602060002090601f016020900481019282601f10613cd357805160ff1916838001178555613d01565b82800160010185558215613d01579182015b82811115613d00578251825591602001919060010190613ce5565b5b509050613d0e9190613e7d565b5090565b604080519081016040528060608152602001606081525090565b828054600181600116156101000203166002900490600052602060002090601f016020900481019282601f10613d6d57805160ff1916838001178555613d9b565b82800160010185558215613d9b579182015b82811115613d9a578251825591602001919060010190613d7f565b5b509050613da89190613e7d565b5090565b6101006040519081016040528060008152602001600073ffffffffffffffffffffffffffffffffffffffff168152602001600073ffffffffffffffffffffffffffffffffffffffff1681526020016000815260200160006003811115613e0e57fe5b81526020016060815260200160008152602001600081525090565b60e06040519081016040528060008152602001600073ffffffffffffffffffffffffffffffffffffffff16815260200160608152602001606081526020016060815260200160608152602001606081525090565b613e9f91905b80821115613e9b576000816000905550600101613e83565b5090565b905600a165627a7a72305820cff77fe5b5557c79a807254112f619bb510b935118a2ec9c5f06f0f843be0bd50029",
  "source": "pragma solidity ^0.4.11;\r\ncontract ManageOrder{\r\n address public owner;\r\n uint256 count;\r\n uint256 count_parking;\r\n string order_list;\r\n uint256 order_number;\r\n string public result;\r\n\r\n //order table\r\n struct Order {\r\n        uint256 orderNo;\r\n        address buyer;\r\n        address seller;\r\n        uint256 parkingNo;\r\n        State state;\r\n        string new_hour;\r\n        uint256 price;\r\n        uint date;\r\n    }\r\n//parking table\r\nstruct Parking {\r\n        uint256 parkingNo;\r\n        address seller;\r\n        string name;\r\n        string phone;\r\n        string post_code;\r\n        string avail_hour;\r\n        string park_address;\r\n    }\r\n\r\n//buyer table\r\nstruct Buyer{\r\n        string name;\r\n        string phone;\r\n}\r\n\r\n//map the struct to an index\r\n    mapping(uint => Order) private Orders;\r\n    mapping(uint => Parking) private Parkings;\r\n    mapping(address => uint256) balances;\r\n    mapping(address => Buyer) private Buyers;\r\n\r\n //order state in enum type\r\n enum State { Created, Pending, Completed, Aborted }\r\n\r\n//construct function, record the contract owner and initiate related parameters\r\n function ManageOrder(){\r\n owner = msg.sender;\r\n count = 0;\r\n count_parking=0;\r\n }\r\n\r\n //modifier, check if the message sender is a buyer\r\n modifier onlyBuyer(uint256 order_no) {\r\n        require(msg.sender == Orders[order_no].buyer);\r\n        _;\r\n    }\r\n\r\n //modifier, check if the message sender is a seller\r\n modifier onlySeller(uint256 order_no) {\r\n        require(msg.sender == Orders[order_no].seller);\r\n        _;\r\n    }\r\n\r\n //modifier, check the state of the order\r\n modifier inState(State _state, uint256 order_no) {\r\n        require(Orders[order_no].state == _state);\r\n        _;\r\n    }\r\n\r\n //modifier, check if the message sender has enough balance\r\n modifier isMoney(uint _price){\r\n        require(balances[msg.sender]>=_price);\r\n        _;\r\n    }\r\n\r\n //modifier, check if the seller exiests in the parking table or not\r\n modifier isSeller(uint parkingNo){\r\n         //sha3(...) returns (bytes32)\r\n    require(sha3(Parkings[parkingNo].post_code)!=0);\r\n    _;\r\n }\r\n\r\n //deposit some ether\r\n function depositEther(uint _value) returns (bool success){\r\n     if(balances[msg.sender]<0){\r\n     return false;}\r\n     \r\n     balances[msg.sender]+=_value;\r\n     return true;\r\n }\r\n\r\n //create or modify a parking data in the parking table\r\n   function newParking(string _name, string _phone, string _post_code, string _park_address) {\r\n    bool parking_exist = false;\r\n    uint parking_no;\r\n    //check the parking lot exists in the parking table or not\r\n    for(uint i=1; i<=count_parking; i++){\r\n        if (Parkings[count_parking].seller == msg.sender){\r\n            parking_exist = true;\r\n            parking_no = count_parking;\r\n        }\r\n    }\r\n    //if not exist, create a new parking lot\r\n    if(!parking_exist){\r\n        count_parking++;\r\n    var new_Parking = Parking({\r\n            parkingNo:count_parking,\r\n            seller:msg.sender,\r\n            name:_name,\r\n            phone: _phone,\r\n            post_code:_post_code,\r\n            avail_hour:\"000000000000000000000000000000000000000000000000000000000000000000000000\",\r\n            park_address:_park_address\r\n        });\r\n    //map into the Parkings map\r\n    Parkings[count_parking] = new_Parking;\r\n    }else{\r\n        //if exists, copy and modify the data in the parking data\r\n        Parkings[parking_no].name = _name;\r\n        Parkings[parking_no].phone = _phone;\r\n        Parkings[parking_no].post_code = _post_code;\r\n        Parkings[parking_no].park_address= _park_address;\r\n    }\r\n    \r\n }\r\n\r\n //create or modify a buyer data in the order table\r\n  function newBuyer(string _name, string _phone){\r\n  //check if the buyer data exists in the parking table\r\n  //if not exist, create a new buyer in the table\r\n      if(bytes(Buyers[msg.sender].name).length==0){\r\n          var new_Buyer = Buyer({\r\n         name:_name,\r\n         phone:_phone\r\n     \r\n         });\r\n         Buyers[msg.sender] = new_Buyer;\r\n      }else{\r\n         //if the buyer already exists, just modify the data\r\n         Buyers[msg.sender].name = _name;\r\n         Buyers[msg.sender].phone=_phone;\r\n      }\r\n }\r\n\r\n //create an order\r\n function newOrder(uint256 _parkingNo, uint256 _price, string _avail_hour, string _new_hour)\r\n //modifier added before executing the function\r\n        isMoney(_price)\r\n        isSeller(_parkingNo)\r\n    {\r\n\r\n    count = count+1;\r\n    //new an order in the table\r\n    var new_Order = Order({\r\n            orderNo: count,\r\n            parkingNo: _parkingNo,\r\n            buyer: msg.sender,\r\n            seller:Parkings[_parkingNo].seller,\r\n            state: State.Created,\r\n            new_hour:_new_hour,\r\n            price:_price,\r\n            date:now\r\n        });\r\n    //map it into orders\r\n    Orders[count] = new_Order;\r\n    Parkings[_parkingNo].avail_hour = _avail_hour; \r\n    balances[Orders[count].buyer] -= _price;\r\n    Orders[count].state = State.Pending;\r\n }\r\n \r\n\r\n //check the parking lot information in the parking table\r\n function queryParking(uint _parkingNo) returns (string _hour){\r\n //return the parking result\r\n    result = strConcat2(strConcat1(Parkings[_parkingNo].name, Parkings[_parkingNo].phone, Parkings[_parkingNo].post_code), Parkings[_parkingNo].avail_hour, Parkings[_parkingNo].park_address, \"\");\r\n    return result;\r\n }\r\n\r\n //check the buyer information\r\n function queryBuyer() constant returns (string){\r\n //return the information result\r\n    result = strConcat1(Buyers[msg.sender].name,Buyers[msg.sender].phone,\"\");\r\n    return result;\r\n }\r\n \r\n//return the pakring information\r\n function numParking() constant returns (string){\r\n    for(uint i=1; i<=count_parking; i++){\r\n        if (Parkings[count_parking].seller == msg.sender){\r\n            result = strConcat2(strConcat1(Parkings[count_parking].name, Parkings[count_parking].phone, Parkings[count_parking].post_code), Parkings[count_parking].avail_hour, Parkings[count_parking].park_address,uintToString(count_parking));\r\n    \r\n        }\r\n    }\r\n    return result;\r\n }   \r\n\r\n //for sellers to modify the parking information; mark available time slots\r\n function manageParking(uint256 _parkingNo, string _avail_hour)\r\n isSeller(_parkingNo)\r\n {\r\n    if(Parkings[_parkingNo].seller == msg.sender)\r\n    Parkings[_parkingNo].avail_hour= _avail_hour;\r\n }\r\n\r\n //for all users to check the order history\r\n function listedOrder() returns (string) {\r\n    uint256 display_no = 0;\r\n    string[4] memory sub_result ;\r\n    for(uint256 i=0; i<count+1; i++){\r\n      //only the buyer and seller can get the order history\r\n      if (((Orders[i].buyer==msg.sender)||(Orders[i].seller==msg.sender))&&((Orders[i].state!=State.Completed)&&(Orders[i].state!=State.Aborted))&&(display_no<4)){\r\n          string memory _a = uintToString(Orders[i].orderNo);\r\n          string memory _b = uintToString(Orders[i].parkingNo);\r\n          string memory _c = enumToString(Orders[i].state);\r\n          string memory _d = uintToString(Orders[i].price);\r\n          string memory _e = uintToString(Orders[i].date);\r\n          \r\n          //string memory _b = \r\n          //bytes32 data = bytes32(123456789);\r\n          //result = uintToString(123456789123456789);\r\n          sub_result[display_no] = strConcat2(strConcat1(_a,_b,_c),_d,_e,Orders[i].new_hour);\r\n          display_no++;\r\n      }\r\n    }\r\n    //result = sub_result[display_no-1];\r\n    //orders are concated in to one string and returned to the client\r\n    result = ordersConcat(sub_result[0],sub_result[1],sub_result[2],sub_result[3],\"\");\r\n    return result; \r\n }\r\n\r\n //concat three strings to one\r\n function strConcat1(string _a, string _b, string _c) internal returns (string){\r\n    bytes memory _ba = bytes(_a);\r\n    bytes memory _bb = bytes(_b);\r\n    bytes memory _bc = bytes(_c);\r\n    //new a string and copy every byte into the string byte by byte\r\n    string memory abc = new string(_ba.length + _bb.length + _bc.length + 3);\r\n    bytes memory babc = bytes(abc);\r\n    uint k = 0;\r\n    for (uint i = 0; i < _ba.length; i++) babc[k++] = _ba[i];\r\n    babc[k++] = \"*\";\r\n    for (i = 0; i < _bb.length; i++) babc[k++] = _bb[i];\r\n    babc[k++] = \"*\";\r\n    for (i = 0; i < _bc.length; i++) babc[k++] = _bc[i];\r\n    return string(babc);\r\n}\r\n\r\n//concat four strings into one\r\nfunction strConcat2(string _a, string _b, string _c, string _d) internal returns (string){\r\n    bytes memory _ba = bytes(_a);\r\n    bytes memory _bb = bytes(_b);\r\n    bytes memory _bc = bytes(_c);\r\n    bytes memory _bd = bytes(_d);\r\n    //get the length of the new string first\r\n    string memory abcd = new string(_ba.length + _bb.length + _bc.length + _bd.length + 4);\r\n    bytes memory babcd = bytes(abcd);\r\n    uint k = 0;\r\n    for (uint i = 0; i < _ba.length; i++) babcd[k++] = _ba[i];\r\n    //between each string is a \"*\" for clients to distinguish each string\r\n    babcd[k++] = \"*\";\r\n    for (i = 0; i < _bb.length; i++) babcd[k++] = _bb[i];\r\n    babcd[k++] = \"*\";\r\n    for (i = 0; i < _bc.length; i++) babcd[k++] = _bc[i];\r\n    babcd[k++] = \"*\";\r\n    for (i = 0; i < _bd.length; i++) babcd[k++] = _bd[i];\r\n    //between each order is one \"%\" for client to distinguish each order\r\n    babcd[k++] = \"%\";\r\n    return string(babcd);\r\n}\r\n\r\n//concat the order together into a string\r\nfunction ordersConcat(string _a, string _b, string _c, string _d, string _e) internal returns (string){\r\n    bytes memory _ba = bytes(_a);\r\n    bytes memory _bb = bytes(_b);\r\n    bytes memory _bc = bytes(_c);\r\n    bytes memory _bd = bytes(_d);\r\n    bytes memory _be = bytes(_e);\r\n    //calculate the length of the new string\r\n    string memory abcde = new string(_ba.length + _bb.length + _bc.length + _bd.length + _be.length);\r\n    bytes memory babcde = bytes(abcde);\r\n    uint k = 0;\r\n    for (uint i = 0; i < _ba.length; i++) babcde[k++] = _ba[i];\r\n    for (i = 0; i < _bb.length; i++) babcde[k++] = _bb[i];\r\n    for (i = 0; i < _bc.length; i++) babcde[k++] = _bc[i];\r\n    for (i = 0; i < _bd.length; i++) babcde[k++] = _bd[i];\r\n    for (i = 0; i < _be.length; i++) babcde[k++] = _be[i];\r\n    return string(babcde);\r\n}\r\n \r\n //for sellers and buyers to abort the order\r\n //order state should be pending\r\n function abortOrder(uint256 order_no) \r\n        inState(State.Pending,order_no)\r\n    {\r\n        //get the address of both the buyer and the seller\r\n        address buyer = Orders[order_no].buyer;\r\n        address seller = Orders[order_no].seller;\r\n        //if the message sender id the buyer\r\n        if(msg.sender==Orders[order_no].buyer)\r\n        {\r\n        Orders[order_no].state = State.Aborted;\r\n        //return 80% of the money to buyer\r\n        buyer.transfer(Orders[order_no].price*8/10);\r\n        //20% of the money to the seller\r\n        seller.transfer(Orders[order_no].price*2/10);\r\n        }\r\n        else if(msg.sender==Orders[order_no].seller)\r\n        {\r\n        //if the sender is the seller, he needs to pay 20% of the parking fee to the buyer\r\n        Orders[order_no].state = State.Aborted;\r\n\r\n        //return the money to buyer\r\n        buyer.transfer(Orders[order_no].price*12/10);\r\n        balances[seller]-=Orders[order_no].price*2/10;\r\n        }\r\n\r\n    }\r\n\r\n //only the buyer is able to confirm order\r\n function confirmOrder(uint256 order_no)\r\n        onlyBuyer(order_no)\r\n        inState(State.Pending,order_no)\r\n    {\r\n        //change the state of the order\r\n        Orders[order_no].state = State.Completed;\r\n        address seller = Orders[order_no].seller;\r\n        //send the money to the seller\r\n        seller.transfer(Orders[order_no].price);\r\n        balances[Orders[order_no].seller] += Orders[order_no].price;\r\n    }\r\n\r\n//a payable function\r\n//for buyers and sellers to make payment\r\n function () payable {\r\n     balances[msg.sender]+=msg.value;\r\n }\r\n\r\n\r\n//get the result\r\n function uintto() constant returns (string){\r\n     return result;\r\n }\r\n\r\n //convert the uint type to string\r\nfunction uintToString(uint v) constant returns (string str) {\r\n        uint maxlength = 100;\r\n        bytes memory reversed = new bytes(maxlength);\r\n        uint i = 0;\r\n        while (v != 0) {\r\n            uint remainder = v % 10;\r\n            v = v / 10;\r\n            reversed[i++] = byte(48 + remainder);\r\n        }\r\n        bytes memory s = new bytes(i + 1);\r\n        for (uint j = 0; j <= i; j++) {\r\n            s[j] = reversed[i - j];\r\n        }\r\n        str = string(s);\r\n    }\r\n\r\n//convert enum to string\r\nfunction enumToString(State _state) constant returns (string str){\r\n    uint256 _temp;\r\n    if(_state==State.Created){\r\n        _temp = 1;\r\n    }else if(_state==State.Pending){\r\n        _temp = 2;\r\n    }else if(_state==State.Completed){\r\n        _temp = 3;\r\n    }else {\r\n        _temp = 4;\r\n    }\r\n    str = uintToString(_temp);\r\n}\r\n\r\n//convert address to string\r\nfunction addressToString(address x) returns (string) {\r\n    bytes memory b = new bytes(20);\r\n    for (uint i = 0; i < 20; i++)\r\n        b[i] = byte(uint8(uint(x) / (2**(8*(19 - i)))));\r\n    return string(b);\r\n}\r\n\r\n}\r\n\r\n",
  "sourcePath": "D:\\trial\\blockchain_examples\\Web3j_project\\smart_contract\\contracts\\ManageOrder.sol",
  "compiler": {
    "name": "solc",
    "version": "0.4.26+commit.4563c3fc.Emscripten.clang"
  },
  "schemaVersion": "2.0.3",
  "updatedAt": "2021-03-07T18:48:55.980Z"
}